{
  "_format": "hh-sol-artifact-1",
  "contractName": "StudentRegistry",
  "sourceName": "contracts/StudentRegistry.sol",
  "abi": [
    {
      "inputs": [],
      "stateMutability": "nonpayable",
      "type": "constructor"
    },
    {
      "inputs": [],
      "name": "NotAdmin",
      "type": "error"
    },
    {
      "inputs": [],
      "name": "PersonNotFound",
      "type": "error"
    },
    {
      "anonymous": false,
      "inputs": [
        {
          "indexed": true,
          "internalType": "uint256",
          "name": "id",
          "type": "uint256"
        },
        {
          "indexed": false,
          "internalType": "string",
          "name": "name",
          "type": "string"
        },
        {
          "indexed": false,
          "internalType": "uint256",
          "name": "studentId",
          "type": "uint256"
        }
      ],
      "name": "StudentAdded",
      "type": "event"
    },
    {
      "anonymous": false,
      "inputs": [
        {
          "indexed": true,
          "internalType": "uint256",
          "name": "id",
          "type": "uint256"
        }
      ],
      "name": "StudentRemoved",
      "type": "event"
    },
    {
      "inputs": [
        {
          "internalType": "string",
          "name": "_name",
          "type": "string"
        }
      ],
      "name": "addStudent",
      "outputs": [],
      "stateMutability": "nonpayable",
      "type": "function"
    },
    {
      "inputs": [],
      "name": "admin",
      "outputs": [
        {
          "internalType": "address",
          "name": "",
          "type": "address"
        }
      ],
      "stateMutability": "view",
      "type": "function"
    },
    {
      "inputs": [
        {
          "internalType": "uint256",
          "name": "_id",
          "type": "uint256"
        }
      ],
      "name": "getStudentById",
      "outputs": [
        {
          "components": [
            {
              "internalType": "string",
              "name": "name",
              "type": "string"
            },
            {
              "internalType": "uint256",
              "name": "id",
              "type": "uint256"
            },
            {
              "internalType": "bool",
              "name": "exists",
              "type": "bool"
            }
          ],
          "internalType": "struct StudentRegistry.Class",
          "name": "",
          "type": "tuple"
        }
      ],
      "stateMutability": "view",
      "type": "function"
    },
    {
      "inputs": [
        {
          "internalType": "uint256",
          "name": "_id",
          "type": "uint256"
        }
      ],
      "name": "removeStudent",
      "outputs": [],
      "stateMutability": "nonpayable",
      "type": "function"
    },
    {
      "inputs": [
        {
          "internalType": "uint256",
          "name": "",
          "type": "uint256"
        }
      ],
      "name": "students",
      "outputs": [
        {
          "internalType": "string",
          "name": "name",
          "type": "string"
        },
        {
          "internalType": "uint256",
          "name": "id",
          "type": "uint256"
        },
        {
          "internalType": "bool",
          "name": "exists",
          "type": "bool"
        }
      ],
      "stateMutability": "view",
      "type": "function"
    }
  ],
  "bytecode": "0x608060405234801561001057600080fd5b50336000806101000a81548173ffffffffffffffffffffffffffffffffffffffff021916908373ffffffffffffffffffffffffffffffffffffffff1602179055506001600281905550610e56806100686000396000f3fe608060405234801561001057600080fd5b50600436106100575760003560e01c806306ead22e1461005c578063453e056a1461008e5780636af83845146100aa578063c8fb0793146100c6578063f851a440146100f6575b600080fd5b610076600480360381019061007191906106c2565b610114565b604051610085939291906107a9565b60405180910390f35b6100a860048036038101906100a3919061091c565b6101d3565b005b6100c460048036038101906100bf91906106c2565b610345565b005b6100e060048036038101906100db91906106c2565b610496565b6040516100ed9190610a1d565b60405180910390f35b6100fe6105d4565b60405161010b9190610a80565b60405180910390f35b600360205280600052604060002060009150905080600001805461013790610aca565b80601f016020809104026020016040519081016040528092919081815260200182805461016390610aca565b80156101b05780601f10610185576101008083540402835291602001916101b0565b820191906000526020600020905b81548152906001019060200180831161019357829003601f168201915b5050505050908060010154908060020160009054906101000a900460ff16905083565b60008054906101000a900473ffffffffffffffffffffffffffffffffffffffff1673ffffffffffffffffffffffffffffffffffffffff163373ffffffffffffffffffffffffffffffffffffffff1614610258576040517f7bfa4b9f00000000000000000000000000000000000000000000000000000000815260040160405180910390fd5b600060025490506002600081548092919061027290610b2a565b91905055506001600081548092919061028a90610b2a565b919050555060405180606001604052808381526020018281526020016001151581525060036000600154815260200190815260200160002060008201518160000190816102d79190610d1e565b506020820151816001015560408201518160020160006101000a81548160ff0219169083151502179055509050506001547ffafb7311fc57ca8a55073f63725e888b4250c799d77ae873970d65ac08c5917a8383604051610339929190610df0565b60405180910390a25050565b60008054906101000a900473ffffffffffffffffffffffffffffffffffffffff1673ffffffffffffffffffffffffffffffffffffffff163373ffffffffffffffffffffffffffffffffffffffff16146103ca576040517f7bfa4b9f00000000000000000000000000000000000000000000000000000000815260040160405180910390fd5b6003600082815260200190815260200160002060020160009054906101000a900460ff16610424576040517fd1c5524400000000000000000000000000000000000000000000000000000000815260040160405180910390fd5b600360008281526020019081526020016000206000808201600061044891906105f8565b60018201600090556002820160006101000a81549060ff02191690555050807f59341c48fd0b57ee9c153818be62372ef211cc499da6c2c6d5b8fe49721f36c560405160405180910390a250565b61049e610638565b6003600083815260200190815260200160002060020160009054906101000a900460ff166104f8576040517fd1c5524400000000000000000000000000000000000000000000000000000000815260040160405180910390fd5b6003600083815260200190815260200160002060405180606001604052908160008201805461052690610aca565b80601f016020809104026020016040519081016040528092919081815260200182805461055290610aca565b801561059f5780601f106105745761010080835404028352916020019161059f565b820191906000526020600020905b81548152906001019060200180831161058257829003601f168201915b50505050508152602001600182015481526020016002820160009054906101000a900460ff1615151515815250509050919050565b60008054906101000a900473ffffffffffffffffffffffffffffffffffffffff1681565b50805461060490610aca565b6000825580601f106106165750610635565b601f016020900490600052602060002090810190610634919061065b565b5b50565b604051806060016040528060608152602001600081526020016000151581525090565b5b8082111561067457600081600090555060010161065c565b5090565b6000604051905090565b600080fd5b600080fd5b6000819050919050565b61069f8161068c565b81146106aa57600080fd5b50565b6000813590506106bc81610696565b92915050565b6000602082840312156106d8576106d7610682565b5b60006106e6848285016106ad565b91505092915050565b600081519050919050565b600082825260208201905092915050565b60005b8381101561072957808201518184015260208101905061070e565b60008484015250505050565b6000601f19601f8301169050919050565b6000610751826106ef565b61075b81856106fa565b935061076b81856020860161070b565b61077481610735565b840191505092915050565b6107888161068c565b82525050565b60008115159050919050565b6107a38161078e565b82525050565b600060608201905081810360008301526107c38186610746565b90506107d2602083018561077f565b6107df604083018461079a565b949350505050565b600080fd5b600080fd5b7f4e487b7100000000000000000000000000000000000000000000000000000000600052604160045260246000fd5b61082982610735565b810181811067ffffffffffffffff82111715610848576108476107f1565b5b80604052505050565b600061085b610678565b90506108678282610820565b919050565b600067ffffffffffffffff821115610887576108866107f1565b5b61089082610735565b9050602081019050919050565b82818337600083830152505050565b60006108bf6108ba8461086c565b610851565b9050828152602081018484840111156108db576108da6107ec565b5b6108e684828561089d565b509392505050565b600082601f830112610903576109026107e7565b5b81356109138482602086016108ac565b91505092915050565b60006020828403121561093257610931610682565b5b600082013567ffffffffffffffff8111156109505761094f610687565b5b61095c848285016108ee565b91505092915050565b600082825260208201905092915050565b6000610981826106ef565b61098b8185610965565b935061099b81856020860161070b565b6109a481610735565b840191505092915050565b6109b88161068c565b82525050565b6109c78161078e565b82525050565b600060608301600083015184820360008601526109ea8282610976565b91505060208301516109ff60208601826109af565b506040830151610a1260408601826109be565b508091505092915050565b60006020820190508181036000830152610a3781846109cd565b905092915050565b600073ffffffffffffffffffffffffffffffffffffffff82169050919050565b6000610a6a82610a3f565b9050919050565b610a7a81610a5f565b82525050565b6000602082019050610a956000830184610a71565b92915050565b7f4e487b7100000000000000000000000000000000000000000000000000000000600052602260045260246000fd5b60006002820490506001821680610ae257607f821691505b602082108103610af557610af4610a9b565b5b50919050565b7f4e487b7100000000000000000000000000000000000000000000000000000000600052601160045260246000fd5b6000610b358261068c565b91507fffffffffffffffffffffffffffffffffffffffffffffffffffffffffffffffff8203610b6757610b66610afb565b5b600182019050919050565b60008190508160005260206000209050919050565b60006020601f8301049050919050565b600082821b905092915050565b600060088302610bd47fffffffffffffffffffffffffffffffffffffffffffffffffffffffffffffffff82610b97565b610bde8683610b97565b95508019841693508086168417925050509392505050565b6000819050919050565b6000610c1b610c16610c118461068c565b610bf6565b61068c565b9050919050565b6000819050919050565b610c3583610c00565b610c49610c4182610c22565b848454610ba4565b825550505050565b600090565b610c5e610c51565b610c69818484610c2c565b505050565b5b81811015610c8d57610c82600082610c56565b600181019050610c6f565b5050565b601f821115610cd257610ca381610b72565b610cac84610b87565b81016020851015610cbb578190505b610ccf610cc785610b87565b830182610c6e565b50505b505050565b600082821c905092915050565b6000610cf560001984600802610cd7565b1980831691505092915050565b6000610d0e8383610ce4565b9150826002028217905092915050565b610d27826106ef565b67ffffffffffffffff811115610d4057610d3f6107f1565b5b610d4a8254610aca565b610d55828285610c91565b600060209050601f831160018114610d885760008415610d76578287015190505b610d808582610d02565b865550610de8565b601f198416610d9686610b72565b60005b82811015610dbe57848901518255600182019150602085019450602081019050610d99565b86831015610ddb5784890151610dd7601f891682610ce4565b8355505b6001600288020188555050505b505050505050565b60006040820190508181036000830152610e0a8185610746565b9050610e19602083018461077f565b939250505056fea2646970667358221220b2cd6ebc4b356479f1956d52f563861f8f8868f08aa9a7e1a0d51a8467851a7264736f6c63430008140033",
  "linkReferences": {},
  "deployedLinkReferences": {}
}